{"abi":[{"type":"constructor","inputs":[{"name":"tokenAddress","type":"address","internalType":"address"}],"stateMutability":"nonpayable"},{"type":"function","name":"addAdmin","inputs":[{"name":"admin","type":"address","internalType":"address"}],"outputs":[],"stateMutability":"nonpayable"},{"type":"function","name":"admins","inputs":[{"name":"","type":"address","internalType":"address"}],"outputs":[{"name":"","type":"bool","internalType":"bool"}],"stateMutability":"view"},{"type":"function","name":"createDoctor","inputs":[{"name":"hospital","type":"string","internalType":"string"},{"name":"department","type":"string","internalType":"string"},{"name":"rank","type":"uint8","internalType":"enum MedCred.doctorRank"},{"name":"name","type":"string","internalType":"string"}],"outputs":[],"stateMutability":"nonpayable"},{"type":"function","name":"doctorCount","inputs":[],"outputs":[{"name":"","type":"uint256","internalType":"uint256"}],"stateMutability":"view"},{"type":"function","name":"doctors","inputs":[{"name":"","type":"uint256","internalType":"uint256"}],"outputs":[{"name":"hospital","type":"string","internalType":"string"},{"name":"department","type":"string","internalType":"string"},{"name":"rank","type":"uint8","internalType":"enum MedCred.doctorRank"},{"name":"name","type":"string","internalType":"string"},{"name":"exists","type":"bool","internalType":"bool"}],"stateMutability":"view"},{"type":"function","name":"owner","inputs":[],"outputs":[{"name":"","type":"address","internalType":"address"}],"stateMutability":"view"},{"type":"function","name":"removeAdmin","inputs":[{"name":"admin","type":"address","internalType":"address"}],"outputs":[],"stateMutability":"nonpayable"},{"type":"function","name":"renounceOwnership","inputs":[],"outputs":[],"stateMutability":"nonpayable"},{"type":"function","name":"reviewCount","inputs":[],"outputs":[{"name":"","type":"uint256","internalType":"uint256"}],"stateMutability":"view"},{"type":"function","name":"reviewFeedbacks","inputs":[{"name":"","type":"uint256","internalType":"uint256"},{"name":"","type":"uint256","internalType":"uint256"}],"outputs":[{"name":"voter","type":"address","internalType":"address"},{"name":"Category","type":"uint8","internalType":"enum MedCred.FeedbackCategory"}],"stateMutability":"view"},{"type":"function","name":"reviews","inputs":[{"name":"","type":"uint256","internalType":"uint256"}],"outputs":[{"name":"doctorId","type":"uint256","internalType":"uint256"},{"name":"author","type":"address","internalType":"address"},{"name":"sentiment","type":"uint8","internalType":"enum MedCred.ReviewSentiment"},{"name":"statement","type":"string","internalType":"string"}],"stateMutability":"view"},{"type":"function","name":"rewUntfedReivew","inputs":[],"outputs":[{"name":"","type":"uint256","internalType":"uint256"}],"stateMutability":"view"},{"type":"function","name":"rewUnthelReivew","inputs":[],"outputs":[{"name":"","type":"uint256","internalType":"uint256"}],"stateMutability":"view"},{"type":"function","name":"rewUntirReivew","inputs":[],"outputs":[{"name":"","type":"uint256","internalType":"uint256"}],"stateMutability":"view"},{"type":"function","name":"rewUntsubReivew","inputs":[],"outputs":[{"name":"","type":"uint256","internalType":"uint256"}],"stateMutability":"view"},{"type":"function","name":"setConfigure","inputs":[{"name":"_rewUntsubReivew","type":"uint256","internalType":"uint256"},{"name":"_rewUntfedReivew","type":"uint256","internalType":"uint256"},{"name":"_rewUnthelReivew","type":"uint256","internalType":"uint256"},{"name":"_rewUntirReivew","type":"uint256","internalType":"uint256"}],"outputs":[],"stateMutability":"nonpayable"},{"type":"function","name":"submitFeedback","inputs":[{"name":"reviewId","type":"uint256","internalType":"uint256"},{"name":"category","type":"uint8","internalType":"enum MedCred.FeedbackCategory"}],"outputs":[],"stateMutability":"nonpayable"},{"type":"function","name":"submitReview","inputs":[{"name":"doctorId","type":"uint256","internalType":"uint256"},{"name":"sentiment","type":"uint8","internalType":"enum MedCred.ReviewSentiment"},{"name":"statement","type":"string","internalType":"string"}],"outputs":[],"stateMutability":"nonpayable"},{"type":"function","name":"token","inputs":[],"outputs":[{"name":"","type":"address","internalType":"contract IMedCredToken"}],"stateMutability":"view"},{"type":"function","name":"transferOwnership","inputs":[{"name":"newOwner","type":"address","internalType":"address"}],"outputs":[],"stateMutability":"nonpayable"},{"type":"event","name":"AdminAdded","inputs":[{"name":"admin","type":"address","indexed":false,"internalType":"address"}],"anonymous":false},{"type":"event","name":"AdminRemoved","inputs":[{"name":"admin","type":"address","indexed":false,"internalType":"address"}],"anonymous":false},{"type":"event","name":"CreatDoctor","inputs":[{"name":"doctorId","type":"uint256","indexed":false,"internalType":"uint256"},{"name":"name","type":"string","indexed":false,"internalType":"string"}],"anonymous":false},{"type":"event","name":"FeedbackReview","inputs":[{"name":"doctorId","type":"uint256","indexed":false,"internalType":"uint256"},{"name":"reviewId","type":"uint256","indexed":false,"internalType":"uint256"},{"name":"user","type":"address","indexed":false,"internalType":"address"},{"name":"category","type":"uint8","indexed":false,"internalType":"enum MedCred.FeedbackCategory"}],"anonymous":false},{"type":"event","name":"OwnershipTransferred","inputs":[{"name":"previousOwner","type":"address","indexed":true,"internalType":"address"},{"name":"newOwner","type":"address","indexed":true,"internalType":"address"}],"anonymous":false},{"type":"event","name":"SubmitReview","inputs":[{"name":"doctorId","type":"uint256","indexed":false,"internalType":"uint256"},{"name":"user","type":"address","indexed":false,"internalType":"address"},{"name":"sentimetn","type":"uint8","indexed":false,"internalType":"enum MedCred.ReviewSentiment"},{"name":"statement","type":"string","indexed":false,"internalType":"string"}],"anonymous":false},{"type":"error","name":"OwnableInvalidOwner","inputs":[{"name":"owner","type":"address","internalType":"address"}]},{"type":"error","name":"OwnableUnauthorizedAccount","inputs":[{"name":"account","type":"address","internalType":"address"}]}],"bytecode":{"object":"0x6080604052622dc6c0600355620f4240600455624c4b40600555621e848060065534801561002b575f5ffd5b50604051612411380380612411833981810160405281019061004d91906102a1565b335f73ffffffffffffffffffffffffffffffffffffffff168173ffffffffffffffffffffffffffffffffffffffff16036100be575f6040517f1e4fbdf70000000000000000000000000000000000000000000000000000000081526004016100b591906102db565b60405180910390fd5b6100cd8161018260201b60201c565b505f73ffffffffffffffffffffffffffffffffffffffff168173ffffffffffffffffffffffffffffffffffffffff160361013c576040517f08c379a00000000000000000000000000000000000000000000000000000000081526004016101339061034e565b60405180910390fd5b8060015f6101000a81548173ffffffffffffffffffffffffffffffffffffffff021916908373ffffffffffffffffffffffffffffffffffffffff1602179055505061036c565b5f5f5f9054906101000a900473ffffffffffffffffffffffffffffffffffffffff169050815f5f6101000a81548173ffffffffffffffffffffffffffffffffffffffff021916908373ffffffffffffffffffffffffffffffffffffffff1602179055508173ffffffffffffffffffffffffffffffffffffffff168173ffffffffffffffffffffffffffffffffffffffff167f8be0079c531659141344cd1fd0a4f28419497f9722a3daafe3b4186f6b6457e060405160405180910390a35050565b5f5ffd5b5f73ffffffffffffffffffffffffffffffffffffffff82169050919050565b5f61027082610247565b9050919050565b61028081610266565b811461028a575f5ffd5b50565b5f8151905061029b81610277565b92915050565b5f602082840312156102b6576102b5610243565b5b5f6102c38482850161028d565b91505092915050565b6102d581610266565b82525050565b5f6020820190506102ee5f8301846102cc565b92915050565b5f82825260208201905092915050565b7f69742773203020616464726573730000000000000000000000000000000000005f82015250565b5f610338600e836102f4565b915061034382610304565b602082019050919050565b5f6020820190508181035f8301526103658161032c565b9050919050565b612098806103795f395ff3fe608060405234801561000f575f5ffd5b506004361061012a575f3560e01c80639d000bfb116100ab578063c8d322821161006f578063c8d322821461030b578063e83ddcea14610329578063eff5924f1461035c578063f2fde38b1461037a578063fc0c546a146103965761012a565b80639d000bfb14610279578063a33f724214610297578063afcd83b8146102b5578063c4eb216d146102d1578063c5837b69146102ef5761012a565b806370480275116100f257806370480275146101fb578063715018a61461021757806374a5b6931461022157806378522bc41461023d5780638da5cb5b1461025b5761012a565b80631785f53c1461012e578063276128901461014a5780632a84f72f1461017b578063429b62e5146101975780636efb1b84146101c7575b5f5ffd5b610148600480360381019061014391906113fc565b6103b4565b005b610164600480360381019061015f919061145a565b61044a565b60405161017292919061151a565b60405180910390f35b61019560048036038101906101909190611564565b6104ab565b005b6101b160048036038101906101ac91906113fc565b610815565b6040516101be91906115bc565b60405180910390f35b6101e160048036038101906101dc91906115d5565b610832565b6040516101f29594939291906116b6565b60405180910390f35b610215600480360381019061021091906113fc565b610a0e565b005b61021f610aa5565b005b61023b6004803603810190610236919061186b565b610ab8565b005b610245610c70565b60405161025291906118e6565b60405180910390f35b610263610c76565b60405161027091906118ff565b60405180910390f35b610281610c9d565b60405161028e91906118e6565b60405180910390f35b61029f610ca3565b6040516102ac91906118e6565b60405180910390f35b6102cf60048036038101906102ca9190611918565b610ca9565b005b6102d9610d91565b6040516102e691906118e6565b60405180910390f35b6103096004803603810190610304919061199f565b610d97565b005b610313610f95565b60405161032091906118e6565b60405180910390f35b610343600480360381019061033e91906115d5565b610f9b565b6040516103539493929190611a9d565b60405180910390f35b610364611079565b60405161037191906118e6565b60405180910390f35b610394600480360381019061038f91906113fc565b61107f565b005b61039e611103565b6040516103ab9190611b42565b60405180910390f35b6103bc611128565b5f60025f8373ffffffffffffffffffffffffffffffffffffffff1673ffffffffffffffffffffffffffffffffffffffff1681526020019081526020015f205f6101000a81548160ff0219169083151502179055507fa3b62bc36326052d97ea62d63c3d60308ed4c3ea8ac079dd8499f1e9c4f80c0f8160405161043f91906118ff565b60405180910390a150565b600b602052815f5260405f208181548110610463575f80fd5b905f5260205f20015f9150915050805f015f9054906101000a900473ffffffffffffffffffffffffffffffffffffffff1690805f0160149054906101000a900460ff16905082565b5f821180156104bc57506009548211155b6104fb576040517f08c379a00000000000000000000000000000000000000000000000000000000081526004016104f290611ba5565b60405180910390fd5b600b5f8381526020019081526020015f2060405180604001604052803373ffffffffffffffffffffffffffffffffffffffff168152602001836002811115610546576105456114a7565b5b815250908060018154018082558091505060019003905f5260205f20015f909190919091505f820151815f015f6101000a81548173ffffffffffffffffffffffffffffffffffffffff021916908373ffffffffffffffffffffffffffffffffffffffff1602179055506020820151815f0160146101000a81548160ff021916908360028111156105d9576105d86114a7565b5b0217905550505060015f9054906101000a900473ffffffffffffffffffffffffffffffffffffffff1673ffffffffffffffffffffffffffffffffffffffff166340c10f19336004546040518363ffffffff1660e01b815260040161063e929190611bc3565b5f604051808303815f87803b158015610655575f5ffd5b505af1158015610667573d5f5f3e3d5ffd5b505050505f600281111561067e5761067d6114a7565b5b816002811115610691576106906114a7565b5b036107555760015f9054906101000a900473ffffffffffffffffffffffffffffffffffffffff1673ffffffffffffffffffffffffffffffffffffffff166340c10f19600a5f8581526020019081526020015f206001015f9054906101000a900473ffffffffffffffffffffffffffffffffffffffff166005546040518363ffffffff1660e01b8152600401610727929190611bc3565b5f604051808303815f87803b15801561073e575f5ffd5b505af1158015610750573d5f5f3e3d5ffd5b505050505b60016002811115610769576107686114a7565b5b81600281111561077c5761077b6114a7565b5b036107c1576107c0600a5f8481526020019081526020015f206001015f9054906101000a900473ffffffffffffffffffffffffffffffffffffffff166006546111af565b5b7fc887101b414797fc014f890660c4ba7af24dc8911874faaff8ad928455f4b823600a5f8481526020019081526020015f205f01548333846040516108099493929190611bea565b60405180910390a15050565b6002602052805f5260405f205f915054906101000a900460ff1681565b6008602052805f5260405f205f91509050805f01805461085190611c5a565b80601f016020809104026020016040519081016040528092919081815260200182805461087d90611c5a565b80156108c85780601f1061089f576101008083540402835291602001916108c8565b820191905f5260205f20905b8154815290600101906020018083116108ab57829003601f168201915b5050505050908060010180546108dd90611c5a565b80601f016020809104026020016040519081016040528092919081815260200182805461090990611c5a565b80156109545780601f1061092b57610100808354040283529160200191610954565b820191905f5260205f20905b81548152906001019060200180831161093757829003601f168201915b505050505090806002015f9054906101000a900460ff169080600301805461097b90611c5a565b80601f01602080910402602001604051908101604052809291908181526020018280546109a790611c5a565b80156109f25780601f106109c9576101008083540402835291602001916109f2565b820191905f5260205f20905b8154815290600101906020018083116109d557829003601f168201915b505050505090806004015f9054906101000a900460ff16905085565b610a16611128565b600160025f8373ffffffffffffffffffffffffffffffffffffffff1673ffffffffffffffffffffffffffffffffffffffff1681526020019081526020015f205f6101000a81548160ff0219169083151502179055507f44d6d25963f097ad14f29f06854a01f575648a1ef82f30e562ccd3889717e33981604051610a9a91906118ff565b60405180910390a150565b610aad611128565b610ab65f61123c565b565b60085f8481526020019081526020015f206004015f9054906101000a900460ff16610b18576040517f08c379a0000000000000000000000000000000000000000000000000000000008152600401610b0f90611cd4565b60405180910390fd5b60095f815480929190610b2a90611d1f565b919050555060405180608001604052808481526020013373ffffffffffffffffffffffffffffffffffffffff168152602001836002811115610b6f57610b6e6114a7565b5b815260200182815250600a5f60095481526020019081526020015f205f820151815f01556020820151816001015f6101000a81548173ffffffffffffffffffffffffffffffffffffffff021916908373ffffffffffffffffffffffffffffffffffffffff16021790555060408201518160010160146101000a81548160ff02191690836002811115610c0457610c036114a7565b5b02179055506060820151816002019081610c1e9190611efd565b50905050610c2e336003546112fd565b7f0cd9551a3a7813f168393ed3958bd9022f8baa9c2537abcd0371942d7bf377e983338484604051610c639493929190611a9d565b60405180910390a1505050565b60075481565b5f5f5f9054906101000a900473ffffffffffffffffffffffffffffffffffffffff16905090565b60045481565b60055481565b60025f3373ffffffffffffffffffffffffffffffffffffffff1673ffffffffffffffffffffffffffffffffffffffff1681526020019081526020015f205f9054906101000a900460ff1680610d305750610d01610c76565b73ffffffffffffffffffffffffffffffffffffffff163373ffffffffffffffffffffffffffffffffffffffff16145b610d6f576040517f08c379a0000000000000000000000000000000000000000000000000000000008152600401610d6690612016565b60405180910390fd5b8360038190555082600481905550816005819055508060068190555050505050565b60035481565b60025f3373ffffffffffffffffffffffffffffffffffffffff1673ffffffffffffffffffffffffffffffffffffffff1681526020019081526020015f205f9054906101000a900460ff1680610e1e5750610def610c76565b73ffffffffffffffffffffffffffffffffffffffff163373ffffffffffffffffffffffffffffffffffffffff16145b610e5d576040517f08c379a0000000000000000000000000000000000000000000000000000000008152600401610e5490612016565b60405180910390fd5b60075f815480929190610e6f90611d1f565b91905055506040518060a00160405280858152602001848152602001836003811115610e9e57610e9d6114a7565b5b81526020018281526020016001151581525060085f60075481526020019081526020015f205f820151815f019081610ed69190611efd565b506020820151816001019081610eec9190611efd565b506040820151816002015f6101000a81548160ff02191690836003811115610f1757610f166114a7565b5b02179055506060820151816003019081610f319190611efd565b506080820151816004015f6101000a81548160ff0219169083151502179055509050507f18e2d72e0172d4f2fe7d823eae6f5b619e67c2e5f8071c7e444162aef2c34d5f60075482604051610f87929190612034565b60405180910390a150505050565b60065481565b600a602052805f5260405f205f91509050805f015490806001015f9054906101000a900473ffffffffffffffffffffffffffffffffffffffff16908060010160149054906101000a900460ff1690806002018054610ff890611c5a565b80601f016020809104026020016040519081016040528092919081815260200182805461102490611c5a565b801561106f5780601f106110465761010080835404028352916020019161106f565b820191905f5260205f20905b81548152906001019060200180831161105257829003601f168201915b5050505050905084565b60095481565b611087611128565b5f73ffffffffffffffffffffffffffffffffffffffff168173ffffffffffffffffffffffffffffffffffffffff16036110f7575f6040517f1e4fbdf70000000000000000000000000000000000000000000000000000000081526004016110ee91906118ff565b60405180910390fd5b6111008161123c565b50565b60015f9054906101000a900473ffffffffffffffffffffffffffffffffffffffff1681565b61113061138a565b73ffffffffffffffffffffffffffffffffffffffff1661114e610c76565b73ffffffffffffffffffffffffffffffffffffffff16146111ad5761117161138a565b6040517f118cdaa70000000000000000000000000000000000000000000000000000000081526004016111a491906118ff565b60405180910390fd5b565b60015f9054906101000a900473ffffffffffffffffffffffffffffffffffffffff1673ffffffffffffffffffffffffffffffffffffffff16632bf8777b83836040518363ffffffff1660e01b815260040161120b929190611bc3565b5f604051808303815f87803b158015611222575f5ffd5b505af1158015611234573d5f5f3e3d5ffd5b505050505050565b5f5f5f9054906101000a900473ffffffffffffffffffffffffffffffffffffffff169050815f5f6101000a81548173ffffffffffffffffffffffffffffffffffffffff021916908373ffffffffffffffffffffffffffffffffffffffff1602179055508173ffffffffffffffffffffffffffffffffffffffff168173ffffffffffffffffffffffffffffffffffffffff167f8be0079c531659141344cd1fd0a4f28419497f9722a3daafe3b4186f6b6457e060405160405180910390a35050565b60015f9054906101000a900473ffffffffffffffffffffffffffffffffffffffff1673ffffffffffffffffffffffffffffffffffffffff166340c10f1983836040518363ffffffff1660e01b8152600401611359929190611bc3565b5f604051808303815f87803b158015611370575f5ffd5b505af1158015611382573d5f5f3e3d5ffd5b505050505050565b5f33905090565b5f604051905090565b5f5ffd5b5f5ffd5b5f73ffffffffffffffffffffffffffffffffffffffff82169050919050565b5f6113cb826113a2565b9050919050565b6113db816113c1565b81146113e5575f5ffd5b50565b5f813590506113f6816113d2565b92915050565b5f602082840312156114115761141061139a565b5b5f61141e848285016113e8565b91505092915050565b5f819050919050565b61143981611427565b8114611443575f5ffd5b50565b5f8135905061145481611430565b92915050565b5f5f604083850312156114705761146f61139a565b5b5f61147d85828601611446565b925050602061148e85828601611446565b9150509250929050565b6114a1816113c1565b82525050565b7f4e487b71000000000000000000000000000000000000000000000000000000005f52602160045260245ffd5b600381106114e5576114e46114a7565b5b50565b5f8190506114f5826114d4565b919050565b5f611504826114e8565b9050919050565b611514816114fa565b82525050565b5f60408201905061152d5f830185611498565b61153a602083018461150b565b9392505050565b6003811061154d575f5ffd5b50565b5f8135905061155e81611541565b92915050565b5f5f6040838503121561157a5761157961139a565b5b5f61158785828601611446565b925050602061159885828601611550565b9150509250929050565b5f8115159050919050565b6115b6816115a2565b82525050565b5f6020820190506115cf5f8301846115ad565b92915050565b5f602082840312156115ea576115e961139a565b5b5f6115f784828501611446565b91505092915050565b5f81519050919050565b5f82825260208201905092915050565b8281835e5f83830152505050565b5f601f19601f8301169050919050565b5f61164282611600565b61164c818561160a565b935061165c81856020860161161a565b61166581611628565b840191505092915050565b60048110611681576116806114a7565b5b50565b5f81905061169182611670565b919050565b5f6116a082611684565b9050919050565b6116b081611696565b82525050565b5f60a0820190508181035f8301526116ce8188611638565b905081810360208301526116e28187611638565b90506116f160408301866116a7565b81810360608301526117038185611638565b905061171260808301846115ad565b9695505050505050565b60038110611728575f5ffd5b50565b5f813590506117398161171c565b92915050565b5f5ffd5b5f5ffd5b7f4e487b71000000000000000000000000000000000000000000000000000000005f52604160045260245ffd5b61177d82611628565b810181811067ffffffffffffffff8211171561179c5761179b611747565b5b80604052505050565b5f6117ae611391565b90506117ba8282611774565b919050565b5f67ffffffffffffffff8211156117d9576117d8611747565b5b6117e282611628565b9050602081019050919050565b828183375f83830152505050565b5f61180f61180a846117bf565b6117a5565b90508281526020810184848401111561182b5761182a611743565b5b6118368482856117ef565b509392505050565b5f82601f8301126118525761185161173f565b5b81356118628482602086016117fd565b91505092915050565b5f5f5f606084860312156118825761188161139a565b5b5f61188f86828701611446565b93505060206118a08682870161172b565b925050604084013567ffffffffffffffff8111156118c1576118c061139e565b5b6118cd8682870161183e565b9150509250925092565b6118e081611427565b82525050565b5f6020820190506118f95f8301846118d7565b92915050565b5f6020820190506119125f830184611498565b92915050565b5f5f5f5f608085870312156119305761192f61139a565b5b5f61193d87828801611446565b945050602061194e87828801611446565b935050604061195f87828801611446565b925050606061197087828801611446565b91505092959194509250565b60048110611988575f5ffd5b50565b5f813590506119998161197c565b92915050565b5f5f5f5f608085870312156119b7576119b661139a565b5b5f85013567ffffffffffffffff8111156119d4576119d361139e565b5b6119e08782880161183e565b945050602085013567ffffffffffffffff811115611a0157611a0061139e565b5b611a0d8782880161183e565b9350506040611a1e8782880161198b565b925050606085013567ffffffffffffffff811115611a3f57611a3e61139e565b5b611a4b8782880161183e565b91505092959194509250565b60038110611a6857611a676114a7565b5b50565b5f819050611a7882611a57565b919050565b5f611a8782611a6b565b9050919050565b611a9781611a7d565b82525050565b5f608082019050611ab05f8301876118d7565b611abd6020830186611498565b611aca6040830185611a8e565b8181036060830152611adc8184611638565b905095945050505050565b5f819050919050565b5f611b0a611b05611b00846113a2565b611ae7565b6113a2565b9050919050565b5f611b1b82611af0565b9050919050565b5f611b2c82611b11565b9050919050565b611b3c81611b22565b82525050565b5f602082019050611b555f830184611b33565b92915050565b7f496e76616c6964207265766965770000000000000000000000000000000000005f82015250565b5f611b8f600e8361160a565b9150611b9a82611b5b565b602082019050919050565b5f6020820190508181035f830152611bbc81611b83565b9050919050565b5f604082019050611bd65f830185611498565b611be360208301846118d7565b9392505050565b5f608082019050611bfd5f8301876118d7565b611c0a60208301866118d7565b611c176040830185611498565b611c24606083018461150b565b95945050505050565b7f4e487b71000000000000000000000000000000000000000000000000000000005f52602260045260245ffd5b5f6002820490506001821680611c7157607f821691505b602082108103611c8457611c83611c2d565b5b50919050565b7f446f63746f72206e6f7420666f756e64000000000000000000000000000000005f82015250565b5f611cbe60108361160a565b9150611cc982611c8a565b602082019050919050565b5f6020820190508181035f830152611ceb81611cb2565b9050919050565b7f4e487b71000000000000000000000000000000000000000000000000000000005f52601160045260245ffd5b5f611d2982611427565b91507fffffffffffffffffffffffffffffffffffffffffffffffffffffffffffffffff8203611d5b57611d5a611cf2565b5b600182019050919050565b5f819050815f5260205f209050919050565b5f6020601f8301049050919050565b5f82821b905092915050565b5f60088302611dc27fffffffffffffffffffffffffffffffffffffffffffffffffffffffffffffffff82611d87565b611dcc8683611d87565b95508019841693508086168417925050509392505050565b5f611dfe611df9611df484611427565b611ae7565b611427565b9050919050565b5f819050919050565b611e1783611de4565b611e2b611e2382611e05565b848454611d93565b825550505050565b5f5f905090565b611e42611e33565b611e4d818484611e0e565b505050565b5b81811015611e7057611e655f82611e3a565b600181019050611e53565b5050565b601f821115611eb557611e8681611d66565b611e8f84611d78565b81016020851015611e9e578190505b611eb2611eaa85611d78565b830182611e52565b50505b505050565b5f82821c905092915050565b5f611ed55f1984600802611eba565b1980831691505092915050565b5f611eed8383611ec6565b9150826002028217905092915050565b611f0682611600565b67ffffffffffffffff811115611f1f57611f1e611747565b5b611f298254611c5a565b611f34828285611e74565b5f60209050601f831160018114611f65575f8415611f53578287015190505b611f5d8582611ee2565b865550611fc4565b601f198416611f7386611d66565b5f5b82811015611f9a57848901518255600182019150602085019450602081019050611f75565b86831015611fb75784890151611fb3601f891682611ec6565b8355505b6001600288020188555050505b505050505050565b7f4e6f742061646d696e206f72206f776e657200000000000000000000000000005f82015250565b5f61200060128361160a565b915061200b82611fcc565b602082019050919050565b5f6020820190508181035f83015261202d81611ff4565b9050919050565b5f6040820190506120475f8301856118d7565b81810360208301526120598184611638565b9050939250505056fea2646970667358221220dfd8590c28a57ed7d187cd467ad8348ad45682c96d1a9708f0f03186cc31c68064736f6c634300081e0033","linkReferences":{}},"methodIdentifiers":{"addAdmin(address)":"70480275","admins(address)":"429b62e5","createDoctor(string,string,uint8,string)":"c5837b69","doctorCount()":"78522bc4","doctors(uint256)":"6efb1b84","owner()":"8da5cb5b","removeAdmin(address)":"1785f53c","renounceOwnership()":"715018a6","reviewCount()":"eff5924f","reviewFeedbacks(uint256,uint256)":"27612890","reviews(uint256)":"e83ddcea","rewUntfedReivew()":"9d000bfb","rewUnthelReivew()":"a33f7242","rewUntirReivew()":"c8d32282","rewUntsubReivew()":"c4eb216d","setConfigure(uint256,uint256,uint256,uint256)":"afcd83b8","submitFeedback(uint256,uint8)":"2a84f72f","submitReview(uint256,uint8,string)":"74a5b693","token()":"fc0c546a","transferOwnership(address)":"f2fde38b"},"id":22}