{"abi":[{"type":"constructor","inputs":[],"stateMutability":"nonpayable"},{"type":"function","name":"allowance","inputs":[{"name":"owner","type":"address","internalType":"address"},{"name":"spender","type":"address","internalType":"address"}],"outputs":[{"name":"","type":"uint256","internalType":"uint256"}],"stateMutability":"view"},{"type":"function","name":"approve","inputs":[{"name":"spender","type":"address","internalType":"address"},{"name":"value","type":"uint256","internalType":"uint256"}],"outputs":[{"name":"","type":"bool","internalType":"bool"}],"stateMutability":"nonpayable"},{"type":"function","name":"balanceOf","inputs":[{"name":"account","type":"address","internalType":"address"}],"outputs":[{"name":"","type":"uint256","internalType":"uint256"}],"stateMutability":"view"},{"type":"function","name":"burnFromProtocol","inputs":[{"name":"user","type":"address","internalType":"address"},{"name":"amount","type":"uint256","internalType":"uint256"}],"outputs":[],"stateMutability":"nonpayable"},{"type":"function","name":"decimals","inputs":[],"outputs":[{"name":"","type":"uint8","internalType":"uint8"}],"stateMutability":"pure"},{"type":"function","name":"mint","inputs":[{"name":"to","type":"address","internalType":"address"},{"name":"amount","type":"uint256","internalType":"uint256"}],"outputs":[],"stateMutability":"nonpayable"},{"type":"function","name":"name","inputs":[],"outputs":[{"name":"","type":"string","internalType":"string"}],"stateMutability":"view"},{"type":"function","name":"owner","inputs":[],"outputs":[{"name":"","type":"address","internalType":"address"}],"stateMutability":"view"},{"type":"function","name":"renounceOwnership","inputs":[],"outputs":[],"stateMutability":"nonpayable"},{"type":"function","name":"symbol","inputs":[],"outputs":[{"name":"","type":"string","internalType":"string"}],"stateMutability":"view"},{"type":"function","name":"totalMinted","inputs":[],"outputs":[{"name":"","type":"uint256","internalType":"uint256"}],"stateMutability":"view"},{"type":"function","name":"totalSupply","inputs":[],"outputs":[{"name":"","type":"uint256","internalType":"uint256"}],"stateMutability":"view"},{"type":"function","name":"transfer","inputs":[{"name":"to","type":"address","internalType":"address"},{"name":"value","type":"uint256","internalType":"uint256"}],"outputs":[{"name":"","type":"bool","internalType":"bool"}],"stateMutability":"nonpayable"},{"type":"function","name":"transferFrom","inputs":[{"name":"from","type":"address","internalType":"address"},{"name":"to","type":"address","internalType":"address"},{"name":"value","type":"uint256","internalType":"uint256"}],"outputs":[{"name":"","type":"bool","internalType":"bool"}],"stateMutability":"nonpayable"},{"type":"function","name":"transferOwnership","inputs":[{"name":"newOwner","type":"address","internalType":"address"}],"outputs":[],"stateMutability":"nonpayable"},{"type":"event","name":"Approval","inputs":[{"name":"owner","type":"address","indexed":true,"internalType":"address"},{"name":"spender","type":"address","indexed":true,"internalType":"address"},{"name":"value","type":"uint256","indexed":false,"internalType":"uint256"}],"anonymous":false},{"type":"event","name":"OwnershipTransferred","inputs":[{"name":"previousOwner","type":"address","indexed":true,"internalType":"address"},{"name":"newOwner","type":"address","indexed":true,"internalType":"address"}],"anonymous":false},{"type":"event","name":"Transfer","inputs":[{"name":"from","type":"address","indexed":true,"internalType":"address"},{"name":"to","type":"address","indexed":true,"internalType":"address"},{"name":"value","type":"uint256","indexed":false,"internalType":"uint256"}],"anonymous":false},{"type":"error","name":"ERC20InsufficientAllowance","inputs":[{"name":"spender","type":"address","internalType":"address"},{"name":"allowance","type":"uint256","internalType":"uint256"},{"name":"needed","type":"uint256","internalType":"uint256"}]},{"type":"error","name":"ERC20InsufficientBalance","inputs":[{"name":"sender","type":"address","internalType":"address"},{"name":"balance","type":"uint256","internalType":"uint256"},{"name":"needed","type":"uint256","internalType":"uint256"}]},{"type":"error","name":"ERC20InvalidApprover","inputs":[{"name":"approver","type":"address","internalType":"address"}]},{"type":"error","name":"ERC20InvalidReceiver","inputs":[{"name":"receiver","type":"address","internalType":"address"}]},{"type":"error","name":"ERC20InvalidSender","inputs":[{"name":"sender","type":"address","internalType":"address"}]},{"type":"error","name":"ERC20InvalidSpender","inputs":[{"name":"spender","type":"address","internalType":"address"}]},{"type":"error","name":"OwnableInvalidOwner","inputs":[{"name":"owner","type":"address","internalType":"address"}]},{"type":"error","name":"OwnableUnauthorizedAccount","inputs":[{"name":"account","type":"address","internalType":"address"}]}],"bytecode":{"object":"0x6080604052600660075f6101000a81548160ff021916908360ff16021790555034801561002a575f5ffd5b50336040518060400160405280600d81526020017f4d65644372656420546f6b656e000000000000000000000000000000000000008152506040518060400160405280600381526020017f4d4354000000000000000000000000000000000000000000000000000000000081525081600390816100a7919061043f565b5080600490816100b7919061043f565b5050505f73ffffffffffffffffffffffffffffffffffffffff168173ffffffffffffffffffffffffffffffffffffffff160361012a575f6040517f1e4fbdf7000000000000000000000000000000000000000000000000000000008152600401610121919061054d565b60405180910390fd5b6101398161013f60201b60201c565b50610566565b5f60055f9054906101000a900473ffffffffffffffffffffffffffffffffffffffff1690508160055f6101000a81548173ffffffffffffffffffffffffffffffffffffffff021916908373ffffffffffffffffffffffffffffffffffffffff1602179055508173ffffffffffffffffffffffffffffffffffffffff168173ffffffffffffffffffffffffffffffffffffffff167f8be0079c531659141344cd1fd0a4f28419497f9722a3daafe3b4186f6b6457e060405160405180910390a35050565b5f81519050919050565b7f4e487b71000000000000000000000000000000000000000000000000000000005f52604160045260245ffd5b7f4e487b71000000000000000000000000000000000000000000000000000000005f52602260045260245ffd5b5f600282049050600182168061027d57607f821691505b6020821081036102905761028f610239565b5b50919050565b5f819050815f5260205f209050919050565b5f6020601f8301049050919050565b5f82821b905092915050565b5f600883026102f27fffffffffffffffffffffffffffffffffffffffffffffffffffffffffffffffff826102b7565b6102fc86836102b7565b95508019841693508086168417925050509392505050565b5f819050919050565b5f819050919050565b5f61034061033b61033684610314565b61031d565b610314565b9050919050565b5f819050919050565b61035983610326565b61036d61036582610347565b8484546102c3565b825550505050565b5f5f905090565b610384610375565b61038f818484610350565b505050565b5b818110156103b2576103a75f8261037c565b600181019050610395565b5050565b601f8211156103f7576103c881610296565b6103d1846102a8565b810160208510156103e0578190505b6103f46103ec856102a8565b830182610394565b50505b505050565b5f82821c905092915050565b5f6104175f19846008026103fc565b1980831691505092915050565b5f61042f8383610408565b9150826002028217905092915050565b61044882610202565b67ffffffffffffffff8111156104615761046061020c565b5b61046b8254610266565b6104768282856103b6565b5f60209050601f8311600181146104a7575f8415610495578287015190505b61049f8582610424565b865550610506565b601f1984166104b586610296565b5f5b828110156104dc578489015182556001820191506020850194506020810190506104b7565b868310156104f957848901516104f5601f891682610408565b8355505b6001600288020188555050505b505050505050565b5f73ffffffffffffffffffffffffffffffffffffffff82169050919050565b5f6105378261050e565b9050919050565b6105478161052d565b82525050565b5f6020820190506105605f83018461053e565b92915050565b6114e7806105735f395ff3fe608060405234801561000f575f5ffd5b50600436106100f3575f3560e01c806370a0823111610095578063a2309ff811610064578063a2309ff81461025f578063a9059cbb1461027d578063dd62ed3e146102ad578063f2fde38b146102dd576100f3565b806370a08231146101e9578063715018a6146102195780638da5cb5b1461022357806395d89b4114610241576100f3565b806323b872dd116100d157806323b872dd146101635780632bf8777b14610193578063313ce567146101af57806340c10f19146101cd576100f3565b806306fdde03146100f7578063095ea7b31461011557806318160ddd14610145575b5f5ffd5b6100ff6102f9565b60405161010c9190611028565b60405180910390f35b61012f600480360381019061012a91906110d9565b610389565b60405161013c9190611131565b60405180910390f35b61014d6103ab565b60405161015a9190611159565b60405180910390f35b61017d60048036038101906101789190611172565b6103b4565b60405161018a9190611131565b60405180910390f35b6101ad60048036038101906101a891906110d9565b6103e2565b005b6101b76104c8565b6040516101c491906111dd565b60405180910390f35b6101e760048036038101906101e291906110d9565b6104d0565b005b61020360048036038101906101fe91906111f6565b6105ae565b6040516102109190611159565b60405180910390f35b6102216105f3565b005b61022b610606565b6040516102389190611230565b60405180910390f35b61024961062e565b6040516102569190611028565b60405180910390f35b6102676106be565b6040516102749190611159565b60405180910390f35b610297600480360381019061029291906110d9565b6106c4565b6040516102a49190611131565b60405180910390f35b6102c760048036038101906102c29190611249565b6106e6565b6040516102d49190611159565b60405180910390f35b6102f760048036038101906102f291906111f6565b610768565b005b606060038054610308906112b4565b80601f0160208091040260200160405190810160405280929190818152602001828054610334906112b4565b801561037f5780601f106103565761010080835404028352916020019161037f565b820191905f5260205f20905b81548152906001019060200180831161036257829003601f168201915b5050505050905090565b5f5f6103936107ec565b90506103a08185856107f3565b600191505092915050565b5f600254905090565b5f5f6103be6107ec565b90506103cb858285610805565b6103d6858585610898565b60019150509392505050565b6103ea610988565b5f73ffffffffffffffffffffffffffffffffffffffff168273ffffffffffffffffffffffffffffffffffffffff1603610458576040517f08c379a000000000000000000000000000000000000000000000000000000000815260040161044f9061132e565b60405180910390fd5b5f610462836105ae565b90505f8183116104725782610474565b815b90505f81116104b8576040517f08c379a00000000000000000000000000000000000000000000000000000000081526004016104af90611396565b60405180910390fd5b6104c28482610a0f565b50505050565b5f6006905090565b6104d8610988565b5f73ffffffffffffffffffffffffffffffffffffffff168273ffffffffffffffffffffffffffffffffffffffff1603610546576040517f08c379a000000000000000000000000000000000000000000000000000000000815260040161053d9061132e565b60405180910390fd5b5f8111610588576040517f08c379a000000000000000000000000000000000000000000000000000000000815260040161057f906113fe565b60405180910390fd5b6105928282610a8e565b8060065f8282546105a39190611449565b925050819055505050565b5f5f5f8373ffffffffffffffffffffffffffffffffffffffff1673ffffffffffffffffffffffffffffffffffffffff1681526020019081526020015f20549050919050565b6105fb610988565b6106045f610b0d565b565b5f60055f9054906101000a900473ffffffffffffffffffffffffffffffffffffffff16905090565b60606004805461063d906112b4565b80601f0160208091040260200160405190810160405280929190818152602001828054610669906112b4565b80156106b45780601f1061068b576101008083540402835291602001916106b4565b820191905f5260205f20905b81548152906001019060200180831161069757829003601f168201915b5050505050905090565b60065481565b5f5f6106ce6107ec565b90506106db818585610898565b600191505092915050565b5f60015f8473ffffffffffffffffffffffffffffffffffffffff1673ffffffffffffffffffffffffffffffffffffffff1681526020019081526020015f205f8373ffffffffffffffffffffffffffffffffffffffff1673ffffffffffffffffffffffffffffffffffffffff1681526020019081526020015f2054905092915050565b610770610988565b5f73ffffffffffffffffffffffffffffffffffffffff168173ffffffffffffffffffffffffffffffffffffffff16036107e0575f6040517f1e4fbdf70000000000000000000000000000000000000000000000000000000081526004016107d79190611230565b60405180910390fd5b6107e981610b0d565b50565b5f33905090565b6108008383836001610bd0565b505050565b5f61081084846106e6565b90507fffffffffffffffffffffffffffffffffffffffffffffffffffffffffffffffff8110156108925781811015610883578281836040517ffb8f41b200000000000000000000000000000000000000000000000000000000815260040161087a9392919061147c565b60405180910390fd5b61089184848484035f610bd0565b5b50505050565b5f73ffffffffffffffffffffffffffffffffffffffff168373ffffffffffffffffffffffffffffffffffffffff1603610908575f6040517f96c6fd1e0000000000000000000000000000000000000000000000000000000081526004016108ff9190611230565b60405180910390fd5b5f73ffffffffffffffffffffffffffffffffffffffff168273ffffffffffffffffffffffffffffffffffffffff1603610978575f6040517fec442f0500000000000000000000000000000000000000000000000000000000815260040161096f9190611230565b60405180910390fd5b610983838383610d9f565b505050565b6109906107ec565b73ffffffffffffffffffffffffffffffffffffffff166109ae610606565b73ffffffffffffffffffffffffffffffffffffffff1614610a0d576109d16107ec565b6040517f118cdaa7000000000000000000000000000000000000000000000000000000008152600401610a049190611230565b60405180910390fd5b565b5f73ffffffffffffffffffffffffffffffffffffffff168273ffffffffffffffffffffffffffffffffffffffff1603610a7f575f6040517f96c6fd1e000000000000000000000000000000000000000000000000000000008152600401610a769190611230565b60405180910390fd5b610a8a825f83610d9f565b5050565b5f73ffffffffffffffffffffffffffffffffffffffff168273ffffffffffffffffffffffffffffffffffffffff1603610afe575f6040517fec442f05000000000000000000000000000000000000000000000000000000008152600401610af59190611230565b60405180910390fd5b610b095f8383610d9f565b5050565b5f60055f9054906101000a900473ffffffffffffffffffffffffffffffffffffffff1690508160055f6101000a81548173ffffffffffffffffffffffffffffffffffffffff021916908373ffffffffffffffffffffffffffffffffffffffff1602179055508173ffffffffffffffffffffffffffffffffffffffff168173ffffffffffffffffffffffffffffffffffffffff167f8be0079c531659141344cd1fd0a4f28419497f9722a3daafe3b4186f6b6457e060405160405180910390a35050565b5f73ffffffffffffffffffffffffffffffffffffffff168473ffffffffffffffffffffffffffffffffffffffff1603610c40575f6040517fe602df05000000000000000000000000000000000000000000000000000000008152600401610c379190611230565b60405180910390fd5b5f73ffffffffffffffffffffffffffffffffffffffff168373ffffffffffffffffffffffffffffffffffffffff1603610cb0575f6040517f94280d62000000000000000000000000000000000000000000000000000000008152600401610ca79190611230565b60405180910390fd5b8160015f8673ffffffffffffffffffffffffffffffffffffffff1673ffffffffffffffffffffffffffffffffffffffff1681526020019081526020015f205f8573ffffffffffffffffffffffffffffffffffffffff1673ffffffffffffffffffffffffffffffffffffffff1681526020019081526020015f20819055508015610d99578273ffffffffffffffffffffffffffffffffffffffff168473ffffffffffffffffffffffffffffffffffffffff167f8c5be1e5ebec7d5bd14f71427d1e84f3dd0314c0f7b2291e5b200ac8c7c3b92584604051610d909190611159565b60405180910390a35b50505050565b5f73ffffffffffffffffffffffffffffffffffffffff168373ffffffffffffffffffffffffffffffffffffffff1603610def578060025f828254610de39190611449565b92505081905550610ebd565b5f5f5f8573ffffffffffffffffffffffffffffffffffffffff1673ffffffffffffffffffffffffffffffffffffffff1681526020019081526020015f2054905081811015610e78578381836040517fe450d38c000000000000000000000000000000000000000000000000000000008152600401610e6f9392919061147c565b60405180910390fd5b8181035f5f8673ffffffffffffffffffffffffffffffffffffffff1673ffffffffffffffffffffffffffffffffffffffff1681526020019081526020015f2081905550505b5f73ffffffffffffffffffffffffffffffffffffffff168273ffffffffffffffffffffffffffffffffffffffff1603610f04578060025f8282540392505081905550610f4e565b805f5f8473ffffffffffffffffffffffffffffffffffffffff1673ffffffffffffffffffffffffffffffffffffffff1681526020019081526020015f205f82825401925050819055505b8173ffffffffffffffffffffffffffffffffffffffff168373ffffffffffffffffffffffffffffffffffffffff167fddf252ad1be2c89b69c2b068fc378daa952ba7f163c4a11628f55a4df523b3ef83604051610fab9190611159565b60405180910390a3505050565b5f81519050919050565b5f82825260208201905092915050565b8281835e5f83830152505050565b5f601f19601f8301169050919050565b5f610ffa82610fb8565b6110048185610fc2565b9350611014818560208601610fd2565b61101d81610fe0565b840191505092915050565b5f6020820190508181035f8301526110408184610ff0565b905092915050565b5f5ffd5b5f73ffffffffffffffffffffffffffffffffffffffff82169050919050565b5f6110758261104c565b9050919050565b6110858161106b565b811461108f575f5ffd5b50565b5f813590506110a08161107c565b92915050565b5f819050919050565b6110b8816110a6565b81146110c2575f5ffd5b50565b5f813590506110d3816110af565b92915050565b5f5f604083850312156110ef576110ee611048565b5b5f6110fc85828601611092565b925050602061110d858286016110c5565b9150509250929050565b5f8115159050919050565b61112b81611117565b82525050565b5f6020820190506111445f830184611122565b92915050565b611153816110a6565b82525050565b5f60208201905061116c5f83018461114a565b92915050565b5f5f5f6060848603121561118957611188611048565b5b5f61119686828701611092565b93505060206111a786828701611092565b92505060406111b8868287016110c5565b9150509250925092565b5f60ff82169050919050565b6111d7816111c2565b82525050565b5f6020820190506111f05f8301846111ce565b92915050565b5f6020828403121561120b5761120a611048565b5b5f61121884828501611092565b91505092915050565b61122a8161106b565b82525050565b5f6020820190506112435f830184611221565b92915050565b5f5f6040838503121561125f5761125e611048565b5b5f61126c85828601611092565b925050602061127d85828601611092565b9150509250929050565b7f4e487b71000000000000000000000000000000000000000000000000000000005f52602260045260245ffd5b5f60028204905060018216806112cb57607f821691505b6020821081036112de576112dd611287565b5b50919050565b7f69742773203020616464726573732100000000000000000000000000000000005f82015250565b5f611318600f83610fc2565b9150611323826112e4565b602082019050919050565b5f6020820190508181035f8301526113458161130c565b9050919050565b7f6275726e2073686f756c64203e300000000000000000000000000000000000005f82015250565b5f611380600e83610fc2565b915061138b8261134c565b602082019050919050565b5f6020820190508181035f8301526113ad81611374565b9050919050565b7f616d6f756e742073686f756c64203e30000000000000000000000000000000005f82015250565b5f6113e8601083610fc2565b91506113f3826113b4565b602082019050919050565b5f6020820190508181035f830152611415816113dc565b9050919050565b7f4e487b71000000000000000000000000000000000000000000000000000000005f52601160045260245ffd5b5f611453826110a6565b915061145e836110a6565b92508282019050808211156114765761147561141c565b5b92915050565b5f60608201905061148f5f830186611221565b61149c602083018561114a565b6114a9604083018461114a565b94935050505056fea26469706673582212207b548c9e66093fdf1f7336496dad3ada2d3290b49c88a6e1eb52414d1ca8423a64736f6c634300081e0033","linkReferences":{}},"methodIdentifiers":{"allowance(address,address)":"dd62ed3e","approve(address,uint256)":"095ea7b3","balanceOf(address)":"70a08231","burnFromProtocol(address,uint256)":"2bf8777b","decimals()":"313ce567","mint(address,uint256)":"40c10f19","name()":"06fdde03","owner()":"8da5cb5b","renounceOwnership()":"715018a6","symbol()":"95d89b41","totalMinted()":"a2309ff8","totalSupply()":"18160ddd","transfer(address,uint256)":"a9059cbb","transferFrom(address,address,uint256)":"23b872dd","transferOwnership(address)":"f2fde38b"},"id":23}